:100000000C942A000C9434000C9434000C943400AA
:100010000C9434000C9434000C9434000C94340090
:100020000C9434000C9434000C9434000C94340080
:100030000C9434000C9434000C9434000C94340070
:100040000C9434000C9434000C9434000C94340060
:100050000C94340011241FBECFE5D8E0DEBFCDBF25
:100060000E9445000C9453000C94000090BD89B987
:1000700088E18AB98EE880BD08955F9BFECF8CB180
:1000800008955D9BFECF8CB908958FE590E00E94A6
:10009000360081E60E94410087EA91E60197F1F778
:0A00A00000C00000F6CFF894FFCF77
:00000001FF
